{
  "contractName": "ForwarderFactory",
  "abi": [
    {
      "anonymous": false,
      "inputs": [
        {
          "indexed": false,
          "name": "forwarderAddress",
          "type": "address"
        },
        {
          "indexed": false,
          "name": "beneficiaryAddress",
          "type": "address"
        }
      ],
      "name": "ContractDeployed",
      "type": "event"
    },
    {
      "constant": false,
      "inputs": [
        {
          "name": "beneficiary",
          "type": "address"
        },
        {
          "name": "number",
          "type": "uint256"
        }
      ],
      "name": "create",
      "outputs": [],
      "payable": false,
      "stateMutability": "nonpayable",
      "type": "function"
    }
  ],
  "bytecode": "0x6060604052341561000f57600080fd5b6104988061001e6000396000f300606060405260043610610041576000357c0100000000000000000000000000000000000000000000000000000000900463ffffffff1680630ecaea7314610046575b600080fd5b341561005157600080fd5b610086600480803573ffffffffffffffffffffffffffffffffffffffff16906020019091908035906020019091905050610088565b005b60008090505b8181101561018e577f33c981baba081f8fd2c52ac6ad1ea95b6814b4376640f55689051f6584729688836100c0610193565b808273ffffffffffffffffffffffffffffffffffffffff1673ffffffffffffffffffffffffffffffffffffffff168152602001915050604051809103906000f080151561010c57600080fd5b84604051808373ffffffffffffffffffffffffffffffffffffffff1673ffffffffffffffffffffffffffffffffffffffff1681526020018273ffffffffffffffffffffffffffffffffffffffff1673ffffffffffffffffffffffffffffffffffffffff1681526020019250505060405180910390a1808060010191505061008e565b505050565b6040516102c9806101a48339019056006060604052341561000f57600080fd5b6040516020806102c983398101604052808051906020019091905050806000806101000a81548173ffffffffffffffffffffffffffffffffffffffff021916908373ffffffffffffffffffffffffffffffffffffffff1602179055505061024e8061007b6000396000f300606060405260043610610041576000357c0100000000000000000000000000000000000000000000000000000000900463ffffffff16806338af3eed146101a8575b6000809054906101000a900473ffffffffffffffffffffffffffffffffffffffff1673ffffffffffffffffffffffffffffffffffffffff166108fc349081150290604051600060405180830381858888f1935050505015156100a257600080fd5b7fa8789495346cde52e9ea2b151de2ddc540f804f6751dbcbb9ba3c654ee178a886000809054906101000a900473ffffffffffffffffffffffffffffffffffffffff163433344342604051808573ffffffffffffffffffffffffffffffffffffffff1673ffffffffffffffffffffffffffffffffffffffff166c010000000000000000000000000281526014018481526020018381526020018281526020019450505050506040518091039020604051808473ffffffffffffffffffffffffffffffffffffffff1673ffffffffffffffffffffffffffffffffffffffff1681526020018381526020018260001916600019168152602001935050505060405180910390a1005b34156101b357600080fd5b6101bb6101fd565b604051808273ffffffffffffffffffffffffffffffffffffffff1673ffffffffffffffffffffffffffffffffffffffff16815260200191505060405180910390f35b6000809054906101000a900473ffffffffffffffffffffffffffffffffffffffff16815600a165627a7a72305820b17c7c9d6893287ef80ce2f51e0f55ffdafd7eab9003370186958b5534f3d4050029a165627a7a72305820f4bd8fd5c636d70c200eed282c93fc5e8ad6dadd1f02a5cbd4f34a1e1e0cd1680029",
  "source": "pragma solidity ^0.4.21;\n\nimport \"./Forwarder.sol\";\n\ncontract ForwarderFactory {\n\n    event ContractDeployed(address forwarderAddress, address beneficiaryAddress);\n    \n    function create(address beneficiary, uint256 number) public {\n    \n        for (uint256 i = 0; i < number; i++) { \n            emit ContractDeployed(new Forwarder(beneficiary), beneficiary);\n        }\n        \n    }\n}",
  "sourcePath": "/Users/piero/projects/vulpem/crypto/forwarder-contract/contracts/ForwarderFactory.sol",
  "compiler": {
    "name": "solc",
    "version": "0.4.21+commit.dfe3193c.Emscripten.clang"
  },
  "schemaVersion": "2.0.0",
  "updatedAt": "2018-06-14T14:56:08.968Z"
}