{
  "contractName": "Forwarder",
  "abi": [
    {
      "constant": true,
      "inputs": [],
      "name": "beneficiary",
      "outputs": [
        {
          "name": "",
          "type": "address"
        }
      ],
      "payable": false,
      "stateMutability": "view",
      "type": "function"
    },
    {
      "inputs": [
        {
          "name": "_beneficiary",
          "type": "address"
        }
      ],
      "payable": false,
      "stateMutability": "nonpayable",
      "type": "constructor"
    },
    {
      "payable": true,
      "stateMutability": "payable",
      "type": "fallback"
    },
    {
      "anonymous": false,
      "inputs": [
        {
          "indexed": false,
          "name": "_to",
          "type": "address"
        },
        {
          "indexed": false,
          "name": "_value",
          "type": "uint256"
        },
        {
          "indexed": false,
          "name": "eventId",
          "type": "bytes32"
        }
      ],
      "name": "Transfer",
      "type": "event"
    }
  ],
  "bytecode": "0x6060604052341561000f57600080fd5b6040516020806102c983398101604052808051906020019091905050806000806101000a81548173ffffffffffffffffffffffffffffffffffffffff021916908373ffffffffffffffffffffffffffffffffffffffff1602179055505061024e8061007b6000396000f300606060405260043610610041576000357c0100000000000000000000000000000000000000000000000000000000900463ffffffff16806338af3eed146101a8575b6000809054906101000a900473ffffffffffffffffffffffffffffffffffffffff1673ffffffffffffffffffffffffffffffffffffffff166108fc349081150290604051600060405180830381858888f1935050505015156100a257600080fd5b7fa8789495346cde52e9ea2b151de2ddc540f804f6751dbcbb9ba3c654ee178a886000809054906101000a900473ffffffffffffffffffffffffffffffffffffffff163433344342604051808573ffffffffffffffffffffffffffffffffffffffff1673ffffffffffffffffffffffffffffffffffffffff166c010000000000000000000000000281526014018481526020018381526020018281526020019450505050506040518091039020604051808473ffffffffffffffffffffffffffffffffffffffff1673ffffffffffffffffffffffffffffffffffffffff1681526020018381526020018260001916600019168152602001935050505060405180910390a1005b34156101b357600080fd5b6101bb6101fd565b604051808273ffffffffffffffffffffffffffffffffffffffff1673ffffffffffffffffffffffffffffffffffffffff16815260200191505060405180910390f35b6000809054906101000a900473ffffffffffffffffffffffffffffffffffffffff16815600a165627a7a72305820b17c7c9d6893287ef80ce2f51e0f55ffdafd7eab9003370186958b5534f3d4050029",
  "source": "pragma solidity ^0.4.21;\n\ncontract Forwarder {\n    // Address to which any funds (ETH) sent to this contract will be forwarded\n    address public beneficiary;\n\n    event Transfer(address _to, uint _value, bytes32 eventId);\n    /**\n    * Create the contract, and sets the destination address to that of the creator\n    */\n    function Forwarder(address _beneficiary) public {\n        beneficiary = _beneficiary;\n    }\n\n    /**\n    * Default function; Gets called when Ether is deposited, and forwards it to the parent address\n    */\n    function() public payable {\n        // throws on failure\n        beneficiary.transfer(msg.value);\n\n        emit Transfer(beneficiary, msg.value, keccak256(msg.sender, msg.value, block.number, block.timestamp));\n    }\n}",
  "sourcePath": "/Users/piero/projects/vulpem/crypto/forwarder-contract/contracts/Forwarder.sol",
  "compiler": {
    "name": "solc",
    "version": "0.4.21+commit.dfe3193c.Emscripten.clang"
  },
  "schemaVersion": "2.0.0",
  "updatedAt": "2018-06-14T14:56:08.968Z"
}