{
  "contractName": "Forwarder",
  "abi": [
    {
      "constant": true,
      "inputs": [],
      "name": "beneficiary",
      "outputs": [
        {
          "name": "",
          "type": "address"
        }
      ],
      "payable": false,
      "stateMutability": "view",
      "type": "function"
    },
    {
      "inputs": [
        {
          "name": "_beneficiary",
          "type": "address"
        }
      ],
      "payable": false,
      "stateMutability": "nonpayable",
      "type": "constructor"
    },
    {
      "payable": true,
      "stateMutability": "payable",
      "type": "fallback"
    },
    {
      "anonymous": false,
      "inputs": [
        {
          "indexed": false,
          "name": "_to",
          "type": "address"
        },
        {
          "indexed": false,
          "name": "_value",
          "type": "uint256"
        }
      ],
      "name": "Transfer",
      "type": "event"
    }
  ],
  "bytecode": "0x6060604052341561000f57600080fd5b60405160208061025183398101604052808051906020019091905050806000806101000a81548173ffffffffffffffffffffffffffffffffffffffff021916908373ffffffffffffffffffffffffffffffffffffffff160217905550506101d68061007b6000396000f300606060405260043610610041576000357c0100000000000000000000000000000000000000000000000000000000900463ffffffff16806338af3eed14610130575b6000809054906101000a900473ffffffffffffffffffffffffffffffffffffffff1673ffffffffffffffffffffffffffffffffffffffff166108fc349081150290604051600060405180830381858888f1935050505015156100a257600080fd5b7f69ca02dd4edd7bf0a4abb9ed3b7af3f14778db5d61921c7dc7cd545266326de26000809054906101000a900473ffffffffffffffffffffffffffffffffffffffff1634604051808373ffffffffffffffffffffffffffffffffffffffff1673ffffffffffffffffffffffffffffffffffffffff1681526020018281526020019250505060405180910390a1005b341561013b57600080fd5b610143610185565b604051808273ffffffffffffffffffffffffffffffffffffffff1673ffffffffffffffffffffffffffffffffffffffff16815260200191505060405180910390f35b6000809054906101000a900473ffffffffffffffffffffffffffffffffffffffff16815600a165627a7a72305820bd74523ab5a6fc47ffdf28f508c669890513364ba5c816fe3e0d929ef1fb86a20029",
  "source": "pragma solidity ^0.4.21;\n\ncontract Forwarder {\n    // Address to which any funds (ETH) sent to this contract will be forwarded\n    address public beneficiary;\n\n    event Transfer(address _to, uint _value);\n    /**\n    * Create the contract, and sets the destination address to that of the creator\n    */\n    function Forwarder(address _beneficiary) public {\n        beneficiary = _beneficiary;\n    }\n\n    /**\n    * Default function; Gets called when Ether is deposited, and forwards it to the parent address\n    */\n    function() public payable {\n        // throws on failure\n        beneficiary.transfer(msg.value);\n\n        emit Transfer(beneficiary, msg.value);\n    }\n}",
  "sourcePath": "/Users/piero/projects/vulpem/crypto/forwarder-contract/contracts/Forwarder.sol",
  "compiler": {
    "name": "solc",
    "version": "0.4.21+commit.dfe3193c.Emscripten.clang"
  },
  "schemaVersion": "2.0.0",
  "updatedAt": "2018-06-07T12:17:37.754Z"
}