{
  "contractName": "ForwarderFactory",
  "abi": [
    {
      "anonymous": false,
      "inputs": [
        {
          "indexed": false,
          "name": "forwarderAddress",
          "type": "address"
        },
        {
          "indexed": false,
          "name": "beneficiaryAddress",
          "type": "address"
        }
      ],
      "name": "ContractDeployed",
      "type": "event"
    },
    {
      "constant": false,
      "inputs": [
        {
          "name": "beneficiary",
          "type": "address"
        },
        {
          "name": "number",
          "type": "uint256"
        }
      ],
      "name": "create",
      "outputs": [],
      "payable": false,
      "stateMutability": "nonpayable",
      "type": "function"
    }
  ],
  "bytecode": "0x6060604052341561000f57600080fd5b6104208061001e6000396000f300606060405260043610610041576000357c0100000000000000000000000000000000000000000000000000000000900463ffffffff1680630ecaea7314610046575b600080fd5b341561005157600080fd5b610086600480803573ffffffffffffffffffffffffffffffffffffffff16906020019091908035906020019091905050610088565b005b60008090505b8181101561018e577f33c981baba081f8fd2c52ac6ad1ea95b6814b4376640f55689051f6584729688836100c0610193565b808273ffffffffffffffffffffffffffffffffffffffff1673ffffffffffffffffffffffffffffffffffffffff168152602001915050604051809103906000f080151561010c57600080fd5b84604051808373ffffffffffffffffffffffffffffffffffffffff1673ffffffffffffffffffffffffffffffffffffffff1681526020018273ffffffffffffffffffffffffffffffffffffffff1673ffffffffffffffffffffffffffffffffffffffff1681526020019250505060405180910390a1808060010191505061008e565b505050565b604051610251806101a48339019056006060604052341561000f57600080fd5b60405160208061025183398101604052808051906020019091905050806000806101000a81548173ffffffffffffffffffffffffffffffffffffffff021916908373ffffffffffffffffffffffffffffffffffffffff160217905550506101d68061007b6000396000f300606060405260043610610041576000357c0100000000000000000000000000000000000000000000000000000000900463ffffffff16806338af3eed14610130575b6000809054906101000a900473ffffffffffffffffffffffffffffffffffffffff1673ffffffffffffffffffffffffffffffffffffffff166108fc349081150290604051600060405180830381858888f1935050505015156100a257600080fd5b7f69ca02dd4edd7bf0a4abb9ed3b7af3f14778db5d61921c7dc7cd545266326de26000809054906101000a900473ffffffffffffffffffffffffffffffffffffffff1634604051808373ffffffffffffffffffffffffffffffffffffffff1673ffffffffffffffffffffffffffffffffffffffff1681526020018281526020019250505060405180910390a1005b341561013b57600080fd5b610143610185565b604051808273ffffffffffffffffffffffffffffffffffffffff1673ffffffffffffffffffffffffffffffffffffffff16815260200191505060405180910390f35b6000809054906101000a900473ffffffffffffffffffffffffffffffffffffffff16815600a165627a7a72305820bd74523ab5a6fc47ffdf28f508c669890513364ba5c816fe3e0d929ef1fb86a20029a165627a7a723058200bc8890b10a3beba8e7c25e3cab671895db9cd09fb7f0cfae3e2074b074f55110029",
  "source": "pragma solidity ^0.4.21;\n\nimport \"./Forwarder.sol\";\n\ncontract ForwarderFactory {\n\n    event ContractDeployed(address forwarderAddress, address beneficiaryAddress);\n    \n    function create(address beneficiary, uint256 number) public {\n    \n        for (uint256 i = 0; i < number; i++) { \n            emit ContractDeployed(new Forwarder(beneficiary), beneficiary);\n        }\n        \n    }\n}",
  "sourcePath": "/Users/piero/projects/vulpem/crypto/forwarder-contract/contracts/ForwarderFactory.sol",
  "compiler": {
    "name": "solc",
    "version": "0.4.21+commit.dfe3193c.Emscripten.clang"
  },
  "schemaVersion": "2.0.0",
  "updatedAt": "2018-06-07T19:47:51.802Z"
}